{
  "contractName": "Voting",
  "abi": [
    {
      "inputs": [
        {
          "internalType": "uint256[]",
          "name": "_candidateListName",
          "type": "uint256[]"
        }
      ],
      "stateMutability": "nonpayable",
      "type": "constructor"
    },
    {
      "inputs": [
        {
          "internalType": "uint256",
          "name": "",
          "type": "uint256"
        }
      ],
      "name": "candidateList",
      "outputs": [
        {
          "internalType": "uint256",
          "name": "",
          "type": "uint256"
        }
      ],
      "stateMutability": "view",
      "type": "function"
    },
    {
      "inputs": [
        {
          "internalType": "uint256",
          "name": "",
          "type": "uint256"
        }
      ],
      "name": "voteReceived",
      "outputs": [
        {
          "internalType": "uint8",
          "name": "",
          "type": "uint8"
        }
      ],
      "stateMutability": "view",
      "type": "function"
    },
    {
      "inputs": [
        {
          "internalType": "uint256",
          "name": "candidateName",
          "type": "uint256"
        }
      ],
      "name": "vote",
      "outputs": [],
      "stateMutability": "nonpayable",
      "type": "function"
    },
    {
      "inputs": [
        {
          "internalType": "uint256",
          "name": "candidateName",
          "type": "uint256"
        }
      ],
      "name": "totalVotesFor",
      "outputs": [
        {
          "internalType": "uint8",
          "name": "",
          "type": "uint8"
        }
      ],
      "stateMutability": "view",
      "type": "function"
    }
  ],
  "bytecode": "0x608060405234801561001057600080fd5b5060405161068538038061068583398181016040528101906100329190610164565b806000908051906020019061004892919061004f565b5050610288565b82805482825590600052602060002090810192821561008b579160200282015b8281111561008a57825182559160200191906001019061006f565b5b509050610098919061009c565b5090565b5b808211156100b557600081600090555060010161009d565b5090565b60006100cc6100c7846101ca565b6101a5565b905080838252602082019050828560208602820111156100eb57600080fd5b60005b8581101561011b5781610101888261014f565b8452602084019350602083019250506001810190506100ee565b5050509392505050565b600082601f83011261013657600080fd5b81516101468482602086016100b9565b91505092915050565b60008151905061015e81610271565b92915050565b60006020828403121561017657600080fd5b600082015167ffffffffffffffff81111561019057600080fd5b61019c84828501610125565b91505092915050565b60006101af6101c0565b90506101bb8282610200565b919050565b6000604051905090565b600067ffffffffffffffff8211156101e5576101e4610231565b5b602082029050602081019050919050565b6000819050919050565b61020982610260565b810181811067ffffffffffffffff8211171561022857610227610231565b5b80604052505050565b7f4e487b7100000000000000000000000000000000000000000000000000000000600052604160045260246000fd5b6000601f19601f8301169050919050565b61027a816101f6565b811461028557600080fd5b50565b6103ee806102976000396000f3fe608060405234801561001057600080fd5b506004361061004c5760003560e01c80630121b93f1461005157806316992de31461006d578063a805f1ca1461009d578063b13c744b146100cd575b600080fd5b61006b6004803603810190610066919061027d565b6100fd565b005b6100876004803603810190610082919061027d565b610159565b60405161009491906102df565b60405180910390f35b6100b760048036038101906100b2919061027d565b610179565b6040516100c491906102df565b60405180910390f35b6100e760048036038101906100e2919061027d565b6101b5565b6040516100f491906102c4565b60405180910390f35b610106816101d9565b61010f57600080fd5b600180600083815260200190815260200160002060008282829054906101000a900460ff1661013e91906102fa565b92506101000a81548160ff021916908360ff16021790555050565b60016020528060005260406000206000915054906101000a900460ff1681565b6000610184826101d9565b61018d57600080fd5b6001600083815260200190815260200160002060009054906101000a900460ff169050919050565b600081815481106101c557600080fd5b906000526020600020016000915090505481565b600080600090505b6000805490508160ff16101561025d5760008160ff168154811061022e577f4e487b7100000000000000000000000000000000000000000000000000000000600052603260045260246000fd5b906000526020600020015483141561024a576001915050610263565b808061025590610348565b9150506101e1565b50600090505b919050565b600081359050610277816103a1565b92915050565b60006020828403121561028f57600080fd5b600061029d84828501610268565b91505092915050565b6102af81610331565b82525050565b6102be8161033b565b82525050565b60006020820190506102d960008301846102a6565b92915050565b60006020820190506102f460008301846102b5565b92915050565b60006103058261033b565b91506103108361033b565b92508260ff0382111561032657610325610372565b5b828201905092915050565b6000819050919050565b600060ff82169050919050565b60006103538261033b565b915060ff82141561036757610366610372565b5b600182019050919050565b7f4e487b7100000000000000000000000000000000000000000000000000000000600052601160045260246000fd5b6103aa81610331565b81146103b557600080fd5b5056fea26469706673582212206125921a8e25a8b4a1bb2b38b8c009e84776e0efb5292509107e24c8fe28a95264736f6c63430008040033",
  "immutableReferences": {},
  "source": "// SPDX-License-Identifier: GPL-3.0\r\npragma solidity >=0.7.0 <0.9.0;\r\n\r\ncontract Voting{\r\n\r\n    uint256[] public candidateList;\r\n\r\n    constructor(uint256[] memory _candidateListName) {\r\n        candidateList = _candidateListName;\r\n    }\r\n    \r\n    mapping(uint256 => uint8) public voteReceived;\r\n\r\n    function validateCandidate(uint256 candidateName) internal view returns(bool){\r\n        for(uint8 i=0; i<candidateList.length; i++){\r\n            if(candidateName == candidateList[i]){\r\n                return true;\r\n            }\r\n        }\r\n        return false;\r\n    }\r\n\r\n    function vote(uint256 candidateName) public {\r\n        require(validateCandidate(candidateName));\r\n        voteReceived[candidateName] += 1;\r\n    }\r\n\r\n    function totalVotesFor(uint256 candidateName) view public returns(uint8){\r\n        require(validateCandidate(candidateName));\r\n        return voteReceived[candidateName];\r\n    }\r\n}",
  "sourcePath": "E:\\truffle_react\\contracts\\Voting.sol",
  "compiler": {
    "name": "solc",
    "version": "0.8.4+commit.c7e474f2.Emscripten.clang"
  },
  "schemaVersion": "3.4.5",
  "updatedAt": "2022-03-05T06:05:58.841Z",
  "devdoc": {
    "kind": "dev",
    "methods": {},
    "version": 1
  },
  "userdoc": {
    "kind": "user",
    "methods": {},
    "version": 1
  }
}